{
  "contractName": "ReviewHolder",
  "abi": [
    {
      "inputs": [],
      "stateMutability": "nonpayable",
      "type": "constructor"
    },
    {
      "inputs": [
        {
          "internalType": "address",
          "name": "addressToReview",
          "type": "address"
        },
        {
          "internalType": "string",
          "name": "review",
          "type": "string"
        },
        {
          "internalType": "uint8",
          "name": "stars",
          "type": "uint8"
        }
      ],
      "name": "WriteAReview",
      "outputs": [],
      "stateMutability": "nonpayable",
      "type": "function"
    },
    {
      "inputs": [
        {
          "internalType": "address",
          "name": "addressReviewed",
          "type": "address"
        }
      ],
      "name": "GetAReview",
      "outputs": [
        {
          "internalType": "string",
          "name": "",
          "type": "string"
        }
      ],
      "stateMutability": "view",
      "type": "function",
      "constant": true
    },
    {
      "inputs": [
        {
          "internalType": "address",
          "name": "addressReviewed",
          "type": "address"
        }
      ],
      "name": "GetStars",
      "outputs": [
        {
          "internalType": "uint8",
          "name": "",
          "type": "uint8"
        }
      ],
      "stateMutability": "view",
      "type": "function",
      "constant": true
    },
    {
      "inputs": [],
      "name": "CheckAllowanceAddress",
      "outputs": [
        {
          "internalType": "uint256",
          "name": "",
          "type": "uint256"
        }
      ],
      "stateMutability": "view",
      "type": "function",
      "constant": true
    },
    {
      "inputs": [
        {
          "internalType": "address",
          "name": "addressToDeposit",
          "type": "address"
        },
        {
          "internalType": "uint256",
          "name": "_amount",
          "type": "uint256"
        }
      ],
      "name": "DepositTokens",
      "outputs": [],
      "stateMutability": "nonpayable",
      "type": "function"
    }
  ],
  "bytecode": "0x608060405234801561001057600080fd5b507384edd24efce155b327e5ef229494667b66d03ba06000806101000a81548173ffffffffffffffffffffffffffffffffffffffff021916908373ffffffffffffffffffffffffffffffffffffffff1602179055506112b9806100746000396000f3fe608060405234801561001057600080fd5b50600436106100575760003560e01c806317943a1a1461005c5780632e23b2a41461008c578063bba27d91146100bc578063c0cf9db9146100d8578063e3a6e26d146100f6575b600080fd5b61007660048036038101906100719190610979565b610112565b60405161008391906109c2565b60405180910390f35b6100a660048036038101906100a19190610979565b6101a8565b6040516100b39190610a6d565b60405180910390f35b6100d660048036038101906100d19190610bf0565b610391565b005b6100e0610530565b6040516100ed9190610c78565b60405180910390f35b610110600480360381019061010b9190610cbf565b6105d4565b005b6000600160008373ffffffffffffffffffffffffffffffffffffffff1673ffffffffffffffffffffffffffffffffffffffff16815260200190815260200160002060003373ffffffffffffffffffffffffffffffffffffffff1673ffffffffffffffffffffffffffffffffffffffff16815260200190815260200160002060010160009054906101000a900460ff169050919050565b60606000600160008473ffffffffffffffffffffffffffffffffffffffff1673ffffffffffffffffffffffffffffffffffffffff16815260200190815260200160002060003373ffffffffffffffffffffffffffffffffffffffff1673ffffffffffffffffffffffffffffffffffffffff1681526020019081526020016000206000019050600081805461023b90610d2e565b905003610280576040518060400160405280600981526020017f4e6f20726576696577000000000000000000000000000000000000000000000081525091505061038c565b600160008473ffffffffffffffffffffffffffffffffffffffff1673ffffffffffffffffffffffffffffffffffffffff16815260200190815260200160002060003373ffffffffffffffffffffffffffffffffffffffff1673ffffffffffffffffffffffffffffffffffffffff168152602001908152602001600020600001805461030a90610d2e565b80601f016020809104026020016040519081016040528092919081815260200182805461033690610d2e565b80156103835780601f1061035857610100808354040283529160200191610383565b820191906000526020600020905b81548152906001019060200180831161036657829003601f168201915b50505050509150505b919050565b61039a83610860565b6103d9576040517f08c379a00000000000000000000000000000000000000000000000000000000081526004016103d090610dd1565b60405180910390fd5b60008160ff1611806103ef575060058160ff1611155b61042e576040517f08c379a000000000000000000000000000000000000000000000000000000000815260040161042590610e63565b60405180910390fd5b600060405180606001604052808481526020018360ff16815260200160011515815250905080600160008673ffffffffffffffffffffffffffffffffffffffff1673ffffffffffffffffffffffffffffffffffffffff16815260200190815260200160002060003373ffffffffffffffffffffffffffffffffffffffff1673ffffffffffffffffffffffffffffffffffffffff16815260200190815260200160002060008201518160000190816104e5919061102f565b5060208201518160010160006101000a81548160ff021916908360ff16021790555060408201518160010160016101000a81548160ff02191690831515021790555090505050505050565b60008060009054906101000a900473ffffffffffffffffffffffffffffffffffffffff1673ffffffffffffffffffffffffffffffffffffffff1663dd62ed3e33306040518363ffffffff1660e01b815260040161058e929190611110565b602060405180830381865afa1580156105ab573d6000803e3d6000fd5b505050506040513d601f19601f820116820180604052508101906105cf919061114e565b905090565b808060008054906101000a900473ffffffffffffffffffffffffffffffffffffffff1673ffffffffffffffffffffffffffffffffffffffff1663dd62ed3e33306040518363ffffffff1660e01b8152600401610631929190611110565b602060405180830381865afa15801561064e573d6000803e3d6000fd5b505050506040513d601f19601f82011682018060405250810190610672919061114e565b10156106b3576040517f08c379a00000000000000000000000000000000000000000000000000000000081526004016106aa906111c7565b60405180910390fd5b60008054906101000a900473ffffffffffffffffffffffffffffffffffffffff1673ffffffffffffffffffffffffffffffffffffffff166323b872dd3385856040518463ffffffff1660e01b8152600401610710939291906111e7565b6020604051808303816000875af115801561072f573d6000803e3d6000fd5b505050506040513d601f19601f820116820180604052508101906107539190611256565b506040518060600160405280604051806020016040528060008152508152602001600060ff16815260200160011515815250600160008573ffffffffffffffffffffffffffffffffffffffff1673ffffffffffffffffffffffffffffffffffffffff16815260200190815260200160002060003373ffffffffffffffffffffffffffffffffffffffff1673ffffffffffffffffffffffffffffffffffffffff1681526020019081526020016000206000820151816000019081610816919061102f565b5060208201518160010160006101000a81548160ff021916908360ff16021790555060408201518160010160016101000a81548160ff021916908315150217905550905050505050565b6000600160008373ffffffffffffffffffffffffffffffffffffffff1673ffffffffffffffffffffffffffffffffffffffff16815260200190815260200160002060003373ffffffffffffffffffffffffffffffffffffffff1673ffffffffffffffffffffffffffffffffffffffff16815260200190815260200160002060010160019054906101000a900460ff16156108fd5760019050610902565b600090505b919050565b6000604051905090565b600080fd5b600080fd5b600073ffffffffffffffffffffffffffffffffffffffff82169050919050565b60006109468261091b565b9050919050565b6109568161093b565b811461096157600080fd5b50565b6000813590506109738161094d565b92915050565b60006020828403121561098f5761098e610911565b5b600061099d84828501610964565b91505092915050565b600060ff82169050919050565b6109bc816109a6565b82525050565b60006020820190506109d760008301846109b3565b92915050565b600081519050919050565b600082825260208201905092915050565b60005b83811015610a175780820151818401526020810190506109fc565b60008484015250505050565b6000601f19601f8301169050919050565b6000610a3f826109dd565b610a4981856109e8565b9350610a598185602086016109f9565b610a6281610a23565b840191505092915050565b60006020820190508181036000830152610a878184610a34565b905092915050565b600080fd5b600080fd5b7f4e487b7100000000000000000000000000000000000000000000000000000000600052604160045260246000fd5b610ad182610a23565b810181811067ffffffffffffffff82111715610af057610aef610a99565b5b80604052505050565b6000610b03610907565b9050610b0f8282610ac8565b919050565b600067ffffffffffffffff821115610b2f57610b2e610a99565b5b610b3882610a23565b9050602081019050919050565b82818337600083830152505050565b6000610b67610b6284610b14565b610af9565b905082815260208101848484011115610b8357610b82610a94565b5b610b8e848285610b45565b509392505050565b600082601f830112610bab57610baa610a8f565b5b8135610bbb848260208601610b54565b91505092915050565b610bcd816109a6565b8114610bd857600080fd5b50565b600081359050610bea81610bc4565b92915050565b600080600060608486031215610c0957610c08610911565b5b6000610c1786828701610964565b935050602084013567ffffffffffffffff811115610c3857610c37610916565b5b610c4486828701610b96565b9250506040610c5586828701610bdb565b9150509250925092565b6000819050919050565b610c7281610c5f565b82525050565b6000602082019050610c8d6000830184610c69565b92915050565b610c9c81610c5f565b8114610ca757600080fd5b50565b600081359050610cb981610c93565b92915050565b60008060408385031215610cd657610cd5610911565b5b6000610ce485828601610964565b9250506020610cf585828601610caa565b9150509250929050565b7f4e487b7100000000000000000000000000000000000000000000000000000000600052602260045260246000fd5b60006002820490506001821680610d4657607f821691505b602082108103610d5957610d58610cff565b5b50919050565b7f596f7520646f6e277420686176652061207472616e736c616374696f6e20667260008201527f6f6d20796f7572206164647265737320746f2074686973206164647265737300602082015250565b6000610dbb603f836109e8565b9150610dc682610d5f565b604082019050919050565b60006020820190508181036000830152610dea81610dae565b9050919050565b7f4572726f722c207374617273206d75737420626520677265617465722074686160008201527f6e20300000000000000000000000000000000000000000000000000000000000602082015250565b6000610e4d6023836109e8565b9150610e5882610df1565b604082019050919050565b60006020820190508181036000830152610e7c81610e40565b9050919050565b60008190508160005260206000209050919050565b60006020601f8301049050919050565b600082821b905092915050565b600060088302610ee57fffffffffffffffffffffffffffffffffffffffffffffffffffffffffffffffff82610ea8565b610eef8683610ea8565b95508019841693508086168417925050509392505050565b6000819050919050565b6000610f2c610f27610f2284610c5f565b610f07565b610c5f565b9050919050565b6000819050919050565b610f4683610f11565b610f5a610f5282610f33565b848454610eb5565b825550505050565b600090565b610f6f610f62565b610f7a818484610f3d565b505050565b5b81811015610f9e57610f93600082610f67565b600181019050610f80565b5050565b601f821115610fe357610fb481610e83565b610fbd84610e98565b81016020851015610fcc578190505b610fe0610fd885610e98565b830182610f7f565b50505b505050565b600082821c905092915050565b600061100660001984600802610fe8565b1980831691505092915050565b600061101f8383610ff5565b9150826002028217905092915050565b611038826109dd565b67ffffffffffffffff81111561105157611050610a99565b5b61105b8254610d2e565b611066828285610fa2565b600060209050601f8311600181146110995760008415611087578287015190505b6110918582611013565b8655506110f9565b601f1984166110a786610e83565b60005b828110156110cf578489015182556001820191506020850194506020810190506110aa565b868310156110ec57848901516110e8601f891682610ff5565b8355505b6001600288020188555050505b505050505050565b61110a8161093b565b82525050565b60006040820190506111256000830185611101565b6111326020830184611101565b9392505050565b60008151905061114881610c93565b92915050565b60006020828403121561116457611163610911565b5b600061117284828501611139565b91505092915050565b7f4572726f72000000000000000000000000000000000000000000000000000000600082015250565b60006111b16005836109e8565b91506111bc8261117b565b602082019050919050565b600060208201905081810360008301526111e0816111a4565b9050919050565b60006060820190506111fc6000830186611101565b6112096020830185611101565b6112166040830184610c69565b949350505050565b60008115159050919050565b6112338161121e565b811461123e57600080fd5b50565b6000815190506112508161122a565b92915050565b60006020828403121561126c5761126b610911565b5b600061127a84828501611241565b9150509291505056fea2646970667358221220de79cce3361208aa0532bbef29f3c440d82c6e97675018c69fd0dfa37578c42a64736f6c63430008130033",
  "immutableReferences": {},
  "source": "// SPDX-License-Identifier: UNLICENSED\r\npragma solidity ^0.8.17;\r\n\r\nimport \"@openzeppelin/contracts/token/ERC20/IERC20.sol\";\r\n\r\n/*\r\nPiccole note: se l'address non esiste in blockchain non si pu fare il mapping e il contratto resistuisce un errore.\r\nle map sono automaticamente inizializzate a valori di default, quindi non si pu fare il check se esiste un mapping o no, ma bisogna fare come  satto fatto sotto.\r\n*/\r\n\r\ncontract ReviewHolder {\r\n    IERC20 token;\r\n    struct Review {\r\n        string review;\r\n        uint8 stars;\r\n        bool havePayed;\r\n    }\r\n\r\n    //qui tiene nell'address dell'e-shop una recensione con l'address del cliente\r\n    mapping(address => mapping(address => Review)) reviewHolder;\r\n\r\n    address private constant coinAddress =\r\n        0x84Edd24efCE155B327E5ef229494667b66d03ba0;\r\n\r\n    constructor() {\r\n        token = IERC20(coinAddress);\r\n    }\r\n\r\n    function CheckTranslaction(\r\n        address companyWalletAddress\r\n    ) private view returns (bool) {\r\n        if (reviewHolder[companyWalletAddress][msg.sender].havePayed) {\r\n            return true;\r\n        } else {\r\n            return false;\r\n        }\r\n    }\r\n\r\n    function WriteAReview(\r\n        address addressToReview,\r\n        string memory review,\r\n        uint8 stars\r\n    ) public {\r\n        require(\r\n            CheckTranslaction(addressToReview),\r\n            \"You don't have a translaction from your address to this address\"\r\n        );\r\n\r\n        require(stars > 0 || stars <= 5, \"Error, stars must be greater than 0\");\r\n\r\n        Review memory _review = Review(review, stars, true);\r\n        reviewHolder[addressToReview][msg.sender] = _review;\r\n    }\r\n\r\n    function GetAReview(\r\n        address addressReviewed\r\n    ) public view returns (string memory) {\r\n        string storage review = reviewHolder[addressReviewed][msg.sender]\r\n            .review;\r\n        if (bytes(review).length == 0) {\r\n            return \"No review\";\r\n        }\r\n\r\n        return reviewHolder[addressReviewed][msg.sender].review;\r\n    }\r\n\r\n    function GetStars(address addressReviewed) public view returns (uint8) {\r\n        return reviewHolder[addressReviewed][msg.sender].stars;\r\n    }\r\n\r\n    modifier CheckAllowance(uint amount) {\r\n        require(token.allowance(msg.sender, address(this)) >= amount, \"Error\");\r\n        _;\r\n    }\r\n\r\n    function CheckAllowanceAddress() public view returns (uint) {\r\n        return token.allowance(msg.sender, address(this));\r\n    }\r\n\r\n    function DepositTokens(\r\n        address addressToDeposit,\r\n        uint _amount\r\n    ) public CheckAllowance(_amount) {\r\n        token.transferFrom(msg.sender, addressToDeposit, _amount);\r\n        reviewHolder[addressToDeposit][msg.sender] = Review(\"\", 0, true);\r\n    }\r\n}\r\n",
  "sourcePath": "C:\\Users\\Nicola\\Desktop\\Git Repositories\\Trustify-webapp\\Trustify-backend\\Trustify\\contracts\\Trustify.sol",
  "compiler": {
    "name": "solc",
    "version": "0.8.19+commit.7dd6d404.Emscripten.clang"
  },
  "schemaVersion": "3.4.13",
  "updatedAt": "2023-03-08T17:02:57.712Z",
  "networkType": "ethereum",
  "devdoc": {
    "kind": "dev",
    "methods": {},
    "version": 1
  },
  "userdoc": {
    "kind": "user",
    "methods": {},
    "version": 1
  }
}